{
  "_format": "hh-sol-artifact-1",
  "contractName": "Wallet",
  "sourceName": "contracts/Wallet.sol",
  "abi": [
    {
      "inputs": [],
      "stateMutability": "nonpayable",
      "type": "constructor"
    },
    {
      "anonymous": false,
      "inputs": [
        {
          "indexed": true,
          "internalType": "address",
          "name": "user",
          "type": "address"
        },
        {
          "indexed": false,
          "internalType": "uint256",
          "name": "amount",
          "type": "uint256"
        }
      ],
      "name": "Deposit",
      "type": "event"
    },
    {
      "anonymous": false,
      "inputs": [
        {
          "indexed": true,
          "internalType": "address",
          "name": "user",
          "type": "address"
        },
        {
          "indexed": false,
          "internalType": "uint256",
          "name": "amount",
          "type": "uint256"
        }
      ],
      "name": "Withdraw",
      "type": "event"
    },
    {
      "inputs": [
        {
          "internalType": "address",
          "name": "",
          "type": "address"
        }
      ],
      "name": "balances",
      "outputs": [
        {
          "internalType": "uint256",
          "name": "",
          "type": "uint256"
        }
      ],
      "stateMutability": "view",
      "type": "function"
    },
    {
      "inputs": [],
      "name": "deposit",
      "outputs": [],
      "stateMutability": "payable",
      "type": "function"
    },
    {
      "inputs": [],
      "name": "getBalance",
      "outputs": [
        {
          "internalType": "uint256",
          "name": "",
          "type": "uint256"
        }
      ],
      "stateMutability": "view",
      "type": "function"
    },
    {
      "inputs": [],
      "name": "owner",
      "outputs": [
        {
          "internalType": "address",
          "name": "",
          "type": "address"
        }
      ],
      "stateMutability": "view",
      "type": "function"
    },
    {
      "inputs": [
        {
          "internalType": "uint256",
          "name": "amount",
          "type": "uint256"
        }
      ],
      "name": "withdraw",
      "outputs": [],
      "stateMutability": "nonpayable",
      "type": "function"
    }
  ],
  "bytecode": "0x608060405234801561001057600080fd5b50336000806101000a81548173ffffffffffffffffffffffffffffffffffffffff021916908373ffffffffffffffffffffffffffffffffffffffff160217905550610731806100606000396000f3fe60806040526004361061004a5760003560e01c806312065fe01461004f57806327e235e31461007a5780632e1a7d4d146100b75780638da5cb5b146100e0578063d0e30db01461010b575b600080fd5b34801561005b57600080fd5b50610064610115565b604051610071919061044d565b60405180910390f35b34801561008657600080fd5b506100a1600480360381019061009c91906104cb565b61015c565b6040516100ae919061044d565b60405180910390f35b3480156100c357600080fd5b506100de60048036038101906100d99190610524565b610174565b005b3480156100ec57600080fd5b506100f5610327565b6040516101029190610560565b60405180910390f35b61011361034b565b005b6000600160003373ffffffffffffffffffffffffffffffffffffffff1673ffffffffffffffffffffffffffffffffffffffff16815260200190815260200160002054905090565b60016020528060005260406000206000915090505481565b600081116101b7576040517f08c379a00000000000000000000000000000000000000000000000000000000081526004016101ae906105d8565b60405180910390fd5b80600160003373ffffffffffffffffffffffffffffffffffffffff1673ffffffffffffffffffffffffffffffffffffffff168152602001908152602001600020541015610239576040517f08c379a000000000000000000000000000000000000000000000000000000000815260040161023090610644565b60405180910390fd5b80600160003373ffffffffffffffffffffffffffffffffffffffff1673ffffffffffffffffffffffffffffffffffffffff16815260200190815260200160002060008282546102889190610693565b925050819055503373ffffffffffffffffffffffffffffffffffffffff166108fc829081150290604051600060405180830381858888f193505050501580156102d5573d6000803e3d6000fd5b503373ffffffffffffffffffffffffffffffffffffffff167f884edad9ce6fa2440d8a54cc123490eb96d2768479d49ff9c7366125a94243648260405161031c919061044d565b60405180910390a250565b60008054906101000a900473ffffffffffffffffffffffffffffffffffffffff1681565b6000341161038e576040517f08c379a0000000000000000000000000000000000000000000000000000000008152600401610385906105d8565b60405180910390fd5b34600160003373ffffffffffffffffffffffffffffffffffffffff1673ffffffffffffffffffffffffffffffffffffffff16815260200190815260200160002060008282546103dd91906106c7565b925050819055503373ffffffffffffffffffffffffffffffffffffffff167fe1fffcc4923d04b559f4d29a8bfc6cda04eb5b0d3c460751c2402c5c5cc9109c3460405161042a919061044d565b60405180910390a2565b6000819050919050565b61044781610434565b82525050565b6000602082019050610462600083018461043e565b92915050565b600080fd5b600073ffffffffffffffffffffffffffffffffffffffff82169050919050565b60006104988261046d565b9050919050565b6104a88161048d565b81146104b357600080fd5b50565b6000813590506104c58161049f565b92915050565b6000602082840312156104e1576104e0610468565b5b60006104ef848285016104b6565b91505092915050565b61050181610434565b811461050c57600080fd5b50565b60008135905061051e816104f8565b92915050565b60006020828403121561053a57610539610468565b5b60006105488482850161050f565b91505092915050565b61055a8161048d565b82525050565b60006020820190506105756000830184610551565b92915050565b600082825260208201905092915050565b7f416d6f756e74206d7573742062652067726561746572207468616e2030000000600082015250565b60006105c2601d8361057b565b91506105cd8261058c565b602082019050919050565b600060208201905081810360008301526105f1816105b5565b9050919050565b7f496e73756666696369656e742062616c616e6365000000000000000000000000600082015250565b600061062e60148361057b565b9150610639826105f8565b602082019050919050565b6000602082019050818103600083015261065d81610621565b9050919050565b7f4e487b7100000000000000000000000000000000000000000000000000000000600052601160045260246000fd5b600061069e82610434565b91506106a983610434565b92508282039050818111156106c1576106c0610664565b5b92915050565b60006106d282610434565b91506106dd83610434565b92508282019050808211156106f5576106f4610664565b5b9291505056fea26469706673582212209ec0ed2d88ea57b18d604157faa9b0e64898a24da50e46d76e794572a072e40264736f6c63430008130033",
  "linkReferences": {},
  "deployedLinkReferences": {}
}